:020000040000FA
:06000000020B420201D3D5
:030013000201F5F2
:03002B0002080BBD
:0300330002052F94
:03003B0002024A74
:030043000208317F
:0300530002011394
:03006B000204E3A9
:03007B0002050972
:1000830002016701FF0503012B2100000000FF1F90
:1000930000000000FF000000FF0001080103000052
:1000A3000001840A881300000020FD0002000020E4
:1000B30017000000000000DA170000000000000035
:1000C300000000000000000000000000000000002D
:1000D3000000000000000000000612FFFF01010104
:1000E30000D10E000000FFFF230FE803640064004B
:1000F300B801020200080000050207051E02051EE2
:100103000A03B80B020102E8030A050001FFFF021C
:10011300C0E074F2120484A2AFE433F508D2AFAFA7
:10012300A7AEA1EE5F541060061214AA75A1EFEEFC
:100133005F540860081214B075A1F78023EEA2E0A3
:1001430092F0EFA2E082F05017906198E0F89009E6
:100153006BE0C398A2D265D0335002E8F075A1FEDC
:10016300E5088063C0E074F2120484A2AFE433FEB6
:10017300D2AF9061A4E0F8759B00E59158540860F4
:10018300087591F71214F88023E59158541060080C
:100193007591EF1214FE8014E591A2E092F0E8A2AB
:1001A300E082F05007E0C2E0F01216489061A3E04D
:1001B300F8E5E9585404600E12161E75E9FB9061C8
:1001C30093E0A2E640F2EEA2E092AF7F0102054186
:1001D300C0E074F2120484A2AFE433FED2AF9061A4
:1001E300A5E0F8E5BF585404600675BFFB1216601E
:1001F30080D4C0E0C0D0E8C0E0E9C0E0C082C083E2
:10020300A8C1E8C0E09008D8E0F8745728F582E464
:100213003408F583D0E0F09008D7E0F8A3E06870E5
:1002230006E5959008DAF09008D8E004F0C39480CE
:100233004002E4F0A374C6F0D083D082D0E0F9D0BA
:10024300E0F8D0D0D0E032C0E0C0D0E8C0E0E9C0F0
:10025300E0C082C08390095BE0F8A3E068700853B4
:100263009AFBA374018022C2E990095BE0F8740150
:1002730028F074DB28F582E43408F583E0F5C190B7
:10028300095BE0C394804002E4F080ACC3E498F8D7
:10029300E499F91202D08026C3E49AFAE49BFBE9BD
:1002A30020E7E91202D0E498F8E499F922C3E4982C
:1002B300F8E499F91202D0E498F8E499F9C3E49ABE
:1002C300FAE49BFB22EB20E7CFE920E7E0B900103B
:1002D300BB0008E88AF084F8AAF022E4FBC8FA22FB
:1002E300EB70227B10C833C8C933C9335007C39A94
:1002F300C3DBF280069A50012ADBEAC833F4C8C98B
:1003030033F4C9FA2275F008E4C833C8C933C933D2
:10031300C99AC99B5004C92AC93BD5F0ECFBC83321
:10032300F4C8E4C9FA22080808EAC0E0EBC0E08692
:10033300F0E7A4FA180986F0E7A42AFA180986F068
:10034300E7A42AFA180986F0E7A42AFA1986F0E73F
:10035300A4FBE5F02AFA190886F0E7A42BFBE5F0E5
:100363003AFA190886F0E7A42BFBE5F03AFA1818D5
:100373000986F0E7A4C5F02BFBE43AFA1908E7C5B0
:10038300F0C6A426F6E5F03BFBE43AFA1886F0E75C
:10039300A4F6E5F00826F6E43B08F6E43A08F6D0BE
:1003A300E0FBD0E0FA22E4CFC0E0E4CEC0E0E4CD4D
:1003B300C0E0E4CCC0E075F020E626F608E633F6AC
:1003C30008E633F608E633F6181818EC33FCED3379
:1003D300FDEE33FEEF33FFC3EC9709ED9709EE977C
:1003E30009EF97191919400FFFEC97FC09ED97FDD9
:1003F30009EE97FE191906D5F0BFECF709EDF709D9
:10040300EEF709EFF7191919D0E0FCD0E0FDD0E0C1
:10041300FED0E0FF222518C582C0E0E51934FFC5F0
:1004230083C0E0E518C3958224F810AF08858319CB
:100433008582188008858319858218D2AFCEF0A3F0
:10044300E520F0A37808E608F0A3DEFAEFF0A3E5D1
:100453008124FAF8E608F0A3E608F0A3E608F0A37F
:100463000808E608F0A3E608F0A315811581D0E09B
:10047300FED0E0F8158115811581E8C0E0EEC0E0FB
:1004830022C0D02518C582C0E0E51934FFC583C05A
:10049300E0E518C3958224F310AF0885831985829C
:1004A300188008858319858218D2AFC8F0A3E9F0B4
:1004B300A3EAF0A3EBF0A37908E709F0A3D8FAECD9
:1004C300F0A3EDF0A3EEF0A3EFF0A3D0E0F0A3D000
:1004D300E0F0A3D0E0F0A3E520F0A3E5F0F0A32241
:1004E300C0E0C0D0E8C0E0E9C0E0A9A8D2AFC2C56F
:1004F300E9A2E7E433F8E9A2E792AFD0E0F9D0E06C
:10050300F8D0D0D0E032C0E074F2120484A2AFE499
:1005130033FED2AFE58AA2E45003121354758A0066
:10052300C2EBEEA2E092AF7F01020541C0E0C0D072
:10053300E8C0E0E9C0E0A9A8D2AFC2E880B285195B
:1005430083851882E0C0E0A3E0F9A3E0FAA3E0FB0F
:10055300A37808E0F608A3DFFAE0FCA3E0FDA3E03C
:10056300FEA3E0FFA3E0C0E0A3E0C0E0A3E0F5D07A
:10057300A3E0F520A3E0A3F5F010AF088583198568
:1005830082188008858319858218D2AFD082D083E0
:10059300D0E0F8D0E032120BB0B900030205D8E482
:1005A300900301789F790D8002F0A3D8FCD9FA7AE1
:1005B3009F7B0F900086788E79018015E493A3AD1D
:1005C30082AE838A828B83F0A3AA82AB838D828ED1
:1005D30083D8E9D9E775822E7583AB74031208F4C7
:1005E3007582C475831E74001208F4E47375F010E9
:1005F3008E1A8F1B85821F85831E8518828519831A
:10060300E0CEA3E0CF851F82851E83EBC9EAC8ED48
:10061300CBECCAC3E833C8E933C9EA33CAEB33CBFB
:10062300C3EA9EF51DEB9FF51CB35004AB1CAA1D3A
:10063300EC33CCED33CDD5F0DAAE1AAF1B22D08339
:10064300D082ECC0E0EDC0E0E493A3FCE493A3FD0F
:10065300ED4C600D120719EC24FFFCED34FFFD8017
:10066300EFE493A3FCE493A3FDED4C600D1207B6F6
:10067300EC24FFFCED34FFFD80EFD0E0FDD0E0FC87
:10068300E493A3C0E0E493C0E022D083D082E9C026
:10069300E0E493A3C386F0C5F095F0F908E493A3CF
:1006A30086F0C5F095F0700BE493A3C3994005E978
:1006B300048002A3E475F002A42582F582E5F035F7
:1006C30083F583D0E0F9E493A3C0E0E493C0E02290
:1006D300851983851882E0A3FEE0A3F5207808E05E
:1006E300A3F608DFFAE0A3FFE0A3C0E0E0A3C0E0C5
:1006F300E0A3C0E0E0A3C0E0E0A3C0E010AF088542
:1007030082188583198008858218858319D2AFD012
:1007130083D0820208FAC0E0C3E49396087401937D
:100723009618400FE4936670080874019366187076
:10073300007019A3A3C3E49396087401939618A3B6
:10074300A3400DD0E0D0E0D0E002067DA3A3A3A395
:10075300A3A3D0E0227404800474028000CCC0E020
:10076300EDC0E0E518C39CCCAD1950011D10AF06D8
:100773008C188D1980068C188D19D2AF120876D07B
:10078300E0FDD0E0FC2274028000CCC0E0EDC0E0CC
:10079300E518C39CCCAD1950011D10AF068C188D04
:1007A3001980068C188D19D2AF120854D0E0FDD0F1
:1007B300E0FC22C0E0C0F088F0E49366700808749F
:1007C300019366187000A8F0A3A3700BD0F0D0E0DB
:1007D300D0E0D0E002067DA3A3D0F0D0E022D08306
:1007E300D082CCC0E0E493A360061208B61470FA7A
:1007F300E493A360061209DC1470FAD0E0FCE493DE
:10080300A3C0E0E493C0E022C0E0C0D0E8C0E0E9C8
:10081300C0E0A9A8D2AFC2C7E9A2E7E433F8E9A2CE
:10082300E792AFD0E0F9D0E0F8D0D0D0E032C0E02A
:1008330074F2120484A2AFE433FED2AFC2C0E5D196
:10084300A2E45003121402EEA2E092AF7F0102056C
:1008530041CAC0E0E493A3C582CCC582C583CDC59C
:1008630083F0A3C582CCC582C583CDC583DAE5D029
:10087300E0CA22CAC0E0E0A3C582CCC582C583CD4D
:10088300C583F0A3C582CCC582C583CDC583DAE613
:10089300D0E0CA227009080808226016181818C682
:1008A300C333C608C633C608C633C608C633C6D55F
:1008B300E0EA22C0E0E493A3D39C5010E493A3C3E3
:1008C3009C400AD0E0D0E0D0E00207FEA3A3A3D06F
:1008D300E022C008C3E096F50808A3E096420808A2
:1008E300A3E096420808A3E09645087001D3D00818
:1008F30022C09FF59FE473D09F22D083D082C09FF4
:10090300E493C0E0740193C0E0740293F59F2274F2
:1009130004800A74038006740280027401C0E0F448
:1009230004120948D0E0120B7F2200C0D025181012
:10093300AF08F518500C05198008F5185002051971
:10094300D2AFD0D0222518F58210AF08F518400C8D
:1009530015198008F51840021519D2AF851983229D
:10096300BB0102E722C082C08389828A83BB000362
:10097300E08002E493D083D082226016080808C680
:10098300C313C618C613C618C613C618C613C6D5CE
:10099300E0EA22C3E0C696F608A3E0C696F608A3EB
:1009A300E0C696F608A3E0C696F6222518F8E435C5
:1009B30019F9222518FAE43519FB222518FCE43528
:1009C30019FD22251810AF08F518400C15198008D9
:1009D300F51840021519D2AF22C0E0E493A36C705E
:1009E30009D0E0D0E0D0E00207FEA3A3D0E022E0EC
:1009F30066701008A3E066700A08A3E06670040836
:100A0300A3E06622E76670100809E766700A080922
:100A1300E76670040809E76622C3E09608A3E09638
:100A230008A3E09608A3E096A2D265D03322C3E6DA
:100A330097F60809E697F60809E697F60809E69790
:100A4300F622C3E096F008A3E096F008A3E096F040
:100A530008A3E096F022E026F008A3E036F008A30E
:100A6300E036F008A3E036F022700422600D18C6C9
:100A7300C333C608C633C6D5E0F41822E647F608E2
:100A830009E647F60809E647F60809E647F622E6C7
:100A930027F60809E637F60809E637F60809E637C0
:100AA300F622E026F608A3E036F608A3E036F608B9
:100AB300A3E036F622E657F60809E657F60809E6F4
:100AC30057F60809E657F622E056F608A3E056F66D
:100AD30008A3E056F608A3E056F622E056F008A372
:100AE300E056F008A3E056F008A3E056F022E4C372
:100AF30096F608E496F608E496F608E496F622C31A
:100B0300E7960809E7960809E7960809E79622C6D3
:100B1300F4C608C6F4C608C6F4C608C6F4C62260FE
:100B23000D08C6A2E713C618C613C6D5E0F322C341
:100B3300E09608A3E09608A3E09608A3E096227542
:100B4300D00075813F75180175190300020599E6F8
:100B5300F008A3E6F008A3E6F008A3E6F022600C91
:100B630008C6C313C618C613C6D5E0F422E0F608B8
:100B7300A3E0F608A3E0F608A3E0F622CAC0E0E685
:100B8300F0A308DAFAD0E0FA22E8F0A3E9F0A3EA46
:100B9300F0A3EBF022E0F8A3E0F9A3E0FAA3E0FB73
:100BA30022E0FAA3E0FBA3E0FCA3E0FD22E5C754A7
:100BB300F84401F5C77901222518F582E43519F5C2
:100BC3008322C2AF75D69F020000221208FD05B230
:100BD300011208FDF6B2011208FD1BB3011208FD54
:100BE300865C001208FDE05C001208FD4A5D0012FD
:100BF30008FDD35D001208FD8F5E001208FD1E5F25
:100C0300001208FD375F001208FD5C5F001208FD4B
:100C13009A5F001208FDE95F001208FD12600012DE
:100C230008FD6160001208FD0D61001208FDD56129
:100C3300001208FD3A62001208FD1363001208FD5A
:100C4300F263001208FD0164001208FD0C64001237
:100C530008FDFE64001208FD0F65001208FD87659C
:100C6300001208FD0F66001208FD7366001208FDEE
:100C73005867001208FD8967001208FDD767001244
:100C830008FDE067001208FDE069001208FD2D6B06
:100C9300001208FDAC6B001208FD806D001208FD08
:100CA300DD6F001208FDF16F001208FDFB6F0012EB
:100CB30008FD0570001208FD0F70001208FD197081
:100CC300001208FD2370001208FD5270001208FD87
:100CD3008870001208FD9370001208FDB7700012AF
:100CE30008FDDB70001208FD3C71001208FD8771DE
:100CF300001208FDA371001208FD0D72001208FD19
:100D03005972001208FDA172001208FD217300122E
:100D130008FDE574001208FDA175001208FD6A764E
:100D2300001208FDF678001208FD4B79001208FD49
:100D33007379001208FD9A7A001208FDDE7A001218
:100D430008FD2E7B001208FDE37B001208FD8D7C5D
:100D5300001208FD017D001208FDA17D001208FDAF
:100D6300337E001208FD8722001208FDB92200120B
:100D730008FDC624001208FD1925001208FD5F2591
:100D8300001208FDF225001208FD5726001208FD87
:100D93009726001208FDFC27001208FDF828001210
:100DA30008FDC22C001208FD5D2D001208FD5D2E0A
:100DB300001208FDC02E001208FDEC2F001208FDE2
:100DC3007E32001208FD0A33001208FD14330012AC
:100DD30008FD4133001208FD1434001208FDD2341B
:100DE300001208FDFB34001208FD2835001208FD2F
:100DF3006537001208FD3938001208FD78380012F3
:100E030008FDF938001208FDBB39001208FDED3961
:100E1300001208FD343A001208FD703A001208FD72
:100E2300BF3A001208FD133B001208FD8D3B001270
:100E330008FDF23B001208FD593C001208FDE33D9A
:100E4300001208FDB03E001208FDC23F001208FD6B
:100E5300B842001208FDFF44001208FDA24500122B
:100E630008FDE045001208FDB947001208FDCC4714
:100E7300001208FDD547001208FDDE47001208FDE9
:100E8300F347001208FD1248001208FDC348001280
:100E930008FD1649001208FD2049001208FDA24969
:100EA300001208FD4F4A001208FD5E4B001208FDB8
:100EB300764C001208FD6E4D001208FD854D0012A0
:100EC30008FDC24D001208FDE04D001208FD334E2F
:100ED300001208FD654E001208FD054F001208FDC3
:100EE3001050001208FD9950001208FD1351001212
:100EF30008FDAF51001208FDEC52001208FDC65365
:100F0300001208FD3154001208FDFA54001208FDC6
:100F13001D55001208FD0256001208FD4656001228
:100F230008FD9E56001208FDFC56001208FD2057CE
:100F3300001208FD4B57001208FD9257001208FDDE
:100F4300B657001208FD2F58001208FD99590012D8
:100F530008FDD759001208FD005A001208FDD35AA4
:100F6300001208FDC55B001208FD0DC1031208FD48
:100F73004CC1031208FD5EB4011208FDC2B4011294
:100F830008FD20B5011208FD6BB5011208FD86B5F9
:100F9300011208FDADB5011208FDCAB5011208FD25
:100FA300D6B5011208FD7AB7011208FD93B70112F5
:100FB30008FD0FB8011208FD22B8011208FD32B86E
:100FC300011208FDD8B8011208FD48BA011208FD44
:100FD3005BBB011208FDFBBB011208FD05BC01123E
:100FE30008FD73BC011208FD84BC011208FDC3BCDB
:100FF300011208FDF1BC011208FDBEBD011208FD7E
:1010030015BE011208FD5ABE011208FDB0BE011241
:1010130008FDCEBE011208FD1CBF011208FDEABF88
:10102300011208FD38C0011208FD7AC0011208FD43
:10103300FDC0011208FD27C1011208FD5DC10112A7
:1010430008FD6CC1011208FDCAC1011208FD42C2AC
:10105300011208FD83C2011208FDD2C2011208FD6C
:10106300FDC2011208FD17C3011208FD31C30112AD
:1010730008FD06C4011208FD10C4011208FD4BC48B
:10108300011208FD5BC4011208FD64C4011208FDCE
:10109300B5C4011208FDC9C4011208FDE7C5011258
:1010A30008FDFCC5011208FD96C6011208FD15C70F
:1010B300011208FDB8C7011208FDC3C7011208FDDC
:1010C3000DC9011208FD29C9011208FD7DC90112CC
:1010D30008FDEBC9011208FD37CA011208FD51CA08
:1010E300011208FD93CA011208FDF6CC011208FD96
:1010F3008ECD011208FD05CE011208FD4BD0011261
:1011030008FD63D0011208FD66D0011208FD72D0FC
:10111300011208FD86D0011208FD8ED0011208FDD0
:10112300C5D0011208FDB9D1011208FD43D2011245
:1011330008FDC5D2011208FD3AD3011208FD12D4ED
:10114300011208FD34D4011208FDCBD4011208FDAD
:10115300D7D4011208FD34D5011208FD37D5011289
:1011630008FDA6D5011208FDF2D6011208FD05D827
:10117300011208FD90D8011208FDA3D9011208FD40
:101183006DDA011208FD9EDA011208FDC4DA0112BC
:1011930008FDCDDA011208FDFCDA011208FDACDB13
:1011A300011208FD5CDC011208FDCFDC011208FD11
:1011B3007FDD011208FDF2DD011208FD31DE0112AF
:1011C30008FD7ADE011208FD2AC4021208FD95C447
:1011D300021208FDE1C4021208FD31C5021208FD26
:1011E300B5C5021208FDF9C7021208FD24CA02128E
:1011F30008FDA4CD021208FDDFCD021208FDFDCDCE
:10120300021208FD5DCE021208FD85CE021208FD12
:10121300B6CE021208FDE3CE021208FD4CCF021235
:1012230008FDD3F2011208FD4FF3011208FD7BF311
:10123300011208FDADF3011208FD0FF5011208FDBF
:101243002BF5011208FD69F5011208FDF6F50112EF
:1012530008FD52F6011208FD18F7011208FDD7F731
:10126300011208FD1CF8011208FD7DF8011208FDAA
:10127300F2F8011208FD1BF9011208FD5CF90112D5
:1012830008FD03FB011208FDE7FB011208FD9EFCAC
:10129300011208FD8BFD011208FDC5FD011208FDB9
:1012A3001DFE011208FD3FFE011208FDD7FE0112CB
:1012B30008FD7EFF011208FD0080031208FD8180F6
:1012C300031208FDE880031208FD2381031208FDC1
:1012D3006681031208FDB283031208FD33BD0312B6
:1012E30008FD44BD031208FDE2BD031208FDDFB093
:1012F300031208FDEDB0031208FD72C2031208FDCC
:10130300AABE031208FDBABE031208FDD8BE03121B
:1013130008FD40BF031208FD55BA031208FDD9BAF0
:10132300031208FD3FBB031208FD56C1031208FD5B
:1013330068C1031208FD86C1031208FD4CBC0312E9
:1013430008FD68BC031208FDC1BC031208FDCCBC38
:10135300031208FD08BD031208FD13B8031208FDAC
:1013630028B8031208FD9CB8031208FDB6B803128F
:1013730008FDCDB8031208FDE0B8031208FDF8B864
:10138300031208FD0DB9031208FDAE95031208FD03
:10139300BC95031208FD3596031208FD0A97031244
:1013A30008FDC998031208FD2CAD031208FD3EADDC
:1013B300031208FD61AD031208FD76AD031208FDAB
:1013C300BEAD031208FD15AE031208FD47AE0312AE
:1013D30008FD65AE031208FD24C2031208FDE2E313
:1013E300021208FD4FE4021208FDF6E4021208FDA2
:1013F30063E5021208FD6BE6021208FDE3E7021241
:1014030008FD3FE8021208FD97E8021208FDE1E833
:10141300021208FD7EE9021208FD05EA021208FD28
:1014230033EA021208FD52EA021208FDDFEA021251
:1014330008FD01EB021208FD20EB021208FD2DEB63
:10144300021208FD59F2021208FD85F2021208FD8C
:101453002BF5021208FD82F5021208FDBEF50212F9
:1014630008FDD2F5021208FDEBF5021208FDDCF6C9
:10147300021208FDB8F7021208FDCCF7021208FDAC
:1014830032B4031208FD56B4031208FD74A401120A
:1014930008FDADB4031208FDE3B4031208FD16B54D
:1014A300031208FD82B5031208FD85B5031208FD7A
:1014B3008FB5031208FD9CB5031208FD8CA103121E
:1014C30008FDAFA1031208FDFAA1031208FD18A23B
:1014D300031208FD33A2031208FD99A2031208FDAB
:1014E300A5A2031208FD02A3031208FD26A30312FB
:1014F30008FD72B1011208FDF9A3031208FD0AA445
:10150300031208FDE3C1031208FDFBC1031208FD2A
:1015130021C2031208FD7889031208FD0E8B031202
:1015230008FD1C8B031208FD308B031208FD4D8B45
:10153300031208FD628B031208FD758B031208FD6D
:10154300F78B031208FD5D8C031208FDF48C031264
:1015530008FDCD8D031208FDDD8D031208FDEC8D12
:10156300031208FD51BF031208FD75BF031208FDE6
:101573009DBF031208FDC5BF031208FD2E99031278
:1015830008FD9A99031208FDB999031208FD2E9AD2
:10159300031208FDF89B031208FD119C031208FDBA
:1015A300289C031208FD319C031208FD4F9C031273
:1015B30008FD599C031208FD639C031208FD769CE9
:1015C300031208FD039D031208FD729D031208FD1B
:1015D300A09D031208FDF19D031208FD3D9E031219
:1015E30008FD589E031208FD629E031208FD739EB8
:1015F300031208FDB69E031208FD77C0031208FD0F
:101603005EDA021208FD8ADA021208FDADDA02126E
:1016130008FDC0DA021208FDDBDA021208FD3FDB27
:10162300021208FD6DDB021208FD7ADF021208FDCB
:10163300BCE0021208FDEEE0021208FD59E10212BD
:1016430008FDD3E2021208FDFBE2021208FD10E3DB
:10165300021208FD20E3021208FD60E3021208FDF6
:10166300A2E3021208FDB2E3021208FDA67E0012F5
:1016730008FDB67E001208FDDA7E001208FD037F26
:10168300001208FD2D7F001208FD517F001208FD96
:10169300687F001208FD967F001208FDB97F0012D3
:1016A30008FD9FC1031208FD2092031208FD30922A
:1016B300031208FD4C93031208FD7E93031208FDE9
:1016C300A493031208FDCC93031208FDDE930312C7
:1016D30008FD1A94031208FD8094031208FDBC94BC
:1016E300031208FD0195031208FD2E95031208FD50
:1016F3005A95031208FDA6B5031208FDC4B50312DB
:1017030008FD26B6031208FDCDB6031208FD58BB2B
:10171300031208FD94B2031208FDE3B3031208FD9C
:1017230097CF021208FD4DD0021208FD72D00212AB
:1017330008FD92D0021208FDA6D0021208FD0ED1B8
:10174300021208FD32D1021208FDADD2021208FDC9
:10175300DED3021208FDB8D4021208FD15D5021219
:1017630008FD4BD5021208FDC9D5021208FD1AD691
:10177300021208FD3BD6021208FDB5D6021208FD7F
:10178300EAD6021208FD4DD7021208FDF1D8021263
:1017930008FDBED9021208FDF6D9021208FD4ADA85
:1017A300021208FD24AF031208FD45AF031208FD22
:1017B30078B0031208FDA2B0031208FDC19E031204
:1017C30008FD359F031208FD409F031208FD619F2A
:1017D300031208FD32B6021208FD35B6021208FDE7
:1017E30007B7021208FD2AB7021208FD73B70212E7
:1017F30008FDA5B7021208FDD3B7021208FD10B801
:10180300021208FD3EB8021208FD33B9021208FDA8
:101813007AB9021208FDBCB9021208FD35BA0212E8
:1018230008FDE0BA021208FD03BB021208FD71BBFA
:10183300021208FDDDBC021208FD88BD021208FD7C
:101843007FBE021208FD73BF021208FD21C00212FF
:1018530008FD56C0021208FDC2C0021208FD5FC196
:10186300021208FD8DC1021208FD18C3021208FD01
:101873009BC3021208FDDBC3021208FDE2B603128A
:1018830008FDF4B6031208FDE0B7031208FDE3B741
:10189300031208FDFCBD031208FD32BE031208FD4E
:1018A3004EBE031208FD90BE031208FDA0BE031234
:1018B30008FD4CEB021208FD93EB021208FDFCEB52
:1018C300021208FD1DEC021208FD36EC021208FD9F
:1018D300E6EC021208FDEFEC021208FD40ED0212E5
:1018E30008FD76ED021208FD8DED021208FDFAEDFA
:1018F300021208FD8AEE021208FDC0EE021208FD74
:1019030009EF021208FD6AEF021208FDA4EF0212AA
:1019130008FD0CF0021208FD5FF0021208FDA2F0B0
:10192300021208FDDFF0021208FDF1F0021208FDB9
:1019330003F1021208FD22F1021208FD2BF102123B
:1019430008FDF0F1021208FD30F2021208FDE0F783
:10195300021208FD26F9021208FD4FF9021208FDD2
:1019630060F9021208FD78FB021208FD98FB0212CF
:1019730008FDC2C0031208FDEAA8031208FD20A94E
:10198300031208FD6FA9031208FDCBAA031208FD79
:101993000080021208FD3E81021208FD7A810212C4
:1019A30008FD3F83021208FD6983021208FDEF85DB
:1019B300021208FD2F86021208FDC587021208FDD8
:1019C3005A88021208FDB888021208FD3E890212E5
:1019D30008FD7689021208FDB889021208FD258BDD
:1019E300021208FDA98C021208FDE38E021208FD03
:1019F300118F021208FD3D8F021208FD468F02125D
:101A030008FD9C8F021208FD2C90021208FD3393EF
:101A1300021208FDB593021208FD5CC2031208FD11
:101A23001D8E031208FD368E031208FDDB8E031292
:101A330008FD1B8F031208FD348F031208FD678F07
:101A4300031208FDB48F031208FDE88F031208FD8B
:101A53002A90031208FD1392031208FD42B90312E0
:101A630008FDB4B9031208FDF2B9031208FD33BA35
:101A7300031208FDAFDE011208FD0ADF011208FDA3
:101A8300D5DF011208FD7CE0011208FDD6E001124A
:101A930008FD45E1011208FD5DE1011208FD9BE32C
:101AA300011208FD2FE4011208FD66E4011208FD8E
:101AB30018E6011208FD51E6011208FD9CE6011229
:101AC30008FDB2E6011208FDBFE6011208FDF8E6C3
:101AD300011208FD0AE7011208FD86E7011208FD5D
:101AE30091E7011208FDE6E7011208FD3BE8011248
:101AF30008FD7EE8011208FD95E9011208FD0CECD2
:101B0300011208FD36ED011208FD8AED011208FDF0
:101B130035EE011208FD57EE011208FD5AEE0112CF
:101B230008FD64EE011208FD67EE011208FDDFEE09
:101B3300011208FD18EF011208FD44EF011208FD20
:101B43007FEF011208FD82EF011208FD98EF0112E9
:101B530008FDB4EF011208FDE3EF011208FD03F0E5
:101B6300011208FD40F0011208FD7BF0011208FD8F
:101B730079F1011208FDEABF031208FDF6BF031253
:101B830008FD32C0031208FDF17F001208FD129414
:101B9300021208FD3594021208FD0695021208FD93
:101BA3004F95021208FDAA95021208FD0F96021224
:101BB30008FD6096021208FDC696021208FD4C97B6
:101BC300021208FDC697021208FD0B98021208FDC7
:101BD300669C021208FD969E021208FDCF9E021219
:101BE30008FD0E9F021208FDF29F021208FDC0A01D
:101BF300021208FD2EA2021208FDD0A2021208FD55
:101C03000DA4021208FD50A5021208FDFAA5021246
:101C130008FD67A6021208FD77A6021208FDF9A6C1
:101C2300021208FD5EA7021208FD6CA8021208FD4D
:101C330093A8021208FD05A9021208FD56A9021273
:101C430008FDB4A9021208FD0FAA021208FD48AB51
:101C5300021208FDF3AB021208FD54AC021208FD98
:101C6300F6AD021208FD8FAE021208FD28AF021274
:101C730008FD87AF021208FDFDAF021208FD17B180
:101C8300021208FD90B2021208FD36B3021208FDDB
:101C9300A6B3021208FDD3B4021208FDA9A60312CB
:101CA30008FDF1A6031208FD44A7031208FDAAA725
:101CB300031208FD0CA8031208FD8FA8031208FDE8
:101CC300CBA8031208FDE5A8031208FD38A40312EC
:101CD30008FD6BA4031208FD2AA5031208FD92A5B3
:101CE300031208FD06A6031208FDECFC021208FD10
:101CF30007FD021208FD4BFD021208FD71FD0212E1
:101D030008FD93FD021208FDABFD021208FD51FE12
:101D1300021208FD5BFE021208FD70FE021208FDAE
:101D230085FF021208FD8EFF021208FD97FF0212C3
:101D330008FDA0FF021208FDC884031208FD0A89EA
:101D4300031208FD0F89031208FD1189031208FD10
:101D5300B2AB031208FDCBFF011208FD95A20112DD
:101D630008FD4DA0011208FDD29F011208FD799FC5
:101D7300011208FDFF9E011208FDD59E011208FD08
:101D8300069D011208FDD69C011208FDA39C0112B9
:101D930008FD7F9C011208FDFE9B011208FD9F9B1D
:101DA300011208FD189A011208FDA599011208FDF8
:101DB300A299011208FDC698011208FDA09801120C
:101DC30008FDDC97011208FD1B96011208FDAE9574
:101DD300011208FD7F95011208FD7C95011208FD93
:101DE3006795011208FD1EB0011208FD9DAD011299
:101DF30008FD22AD011208FDDBAC011208FD42AC67
:101E0300011208FD33AC011208FD2B95011208FDE8
:101E13000895011208FD2394011208FDE2930112B3
:101E230008FD49A9011208FDAF93011208FD54935F
:101E3300011208FD2393011208FDEC8F011208FD26
:101E43008EA6011208FDFA8E011208FDECA30312FF
:101E530008FDBE8D011208FD998C011208FD168C38
:101E6300011208FDDB8B011208FD8C8B011208FDAA
:101E7300808B011208FDE98A011208FDB78901125E
:101E830008FD5E87011208FDEB84011208FD9F84A3
:101E9300011208FD8183011208FD1683011208FD5A
:101EA3004082011208FD53A5011208FD11810112A0
:101EB30008FDDD80011208FDAB80011208FD6FB43F
:101EC3000300000080FB000136360101000102011E
:101ED30000010301000104010606050200000701D9
:101EE30000340801000F090401010D0100FF0E0871
:101EF300000017020000190100FF1A0100011B0175
:101F030000FE1C0100081D0200001F01000120014A
:101F13000001210200002301000F2402000026011A
:101F2300000127010008280200FF2A0100072B01F6
:101F330002402C0100002D0100012E0100012F01A0
:101F430000FF30010B1C310800003A0100083B017F
:101F5300000F3C0100013D0100FF3E04000042046C
:101F63000000460400004A0400004E04000052042E
:101F73000000560400005A0400005E20FFFF3600F4
:101F83000100060000000F00000000000000000038
:101F93000000000003FFFF00000403FFFF0000FF39
:101FA300FF0FF4010005C4040320000100000B002F
:101FB3000000000000000003010F0000000000000B
:101FC300000000000000000000000000000000000E
:101FD30000000000000000000000000000000000FE
:101FE30000000000000000000000000000000000EE
:101FF3000000000000000000000000000103710366
:10200300010301030103010301032203020301038B
:102013001003000300030003000300030003000395
:102023004203000324030603000300030403120313
:1020330025032303250323030403040300030003ED
:10204300000344030003000323030003650321008B
:1020530035038103000305030003000300030003AA
:10206300250323030302710230016002110270028F
:102073000102020202028002100261023A004100E0
:102083006302730272026202430200021302380007
:102093000002000204021202000200020002000217
:1020A30004020402370037003C02440200023900F4
:1020B30000020002650200023502810200020502ED
:1020C3008202830200020101710101010101110178
:1020D30001013101010101018001100161013B0096
:1020E30014006301730172016201430100011301D2
:1020F30006013D0135000401120100010001000148
:10210300000104010401330133013C0144013201A4
:102113003600000100016501000135008101000165
:102123000501820183010001030071003001600099
:102133001100700031022003500480001000610080
:10214300000014006300730072006200430000008B
:10215300130006000000000004001200000000004D
:102163000000000004000400370037003C02440074
:102173000000000000000000650000003500810041
:10218300000005000000830000000100481C02005D
:10219300AC1B0300B21B0400B81B0500BE1B0600EA
:1021A300CA1B1100E81B1400EE1B1500DC1B1F00EB
:1021B300E21BFFFF000007ECFDFDFDECDCDCCCBC0B
:1021C300ACAC9C9C8C7C7C6C6C5C5C5C4C4C3C3CFC
:1021D3002C2C1C1C03EAF5E5D5D5C5B5A59595852D
:1021E300857575656555554545353525251515059C
:1021F3000AD80D02A80D05BA0D07AE0D0C900D0DF2
:102203009C0DFF000000160F00000B150B020002CF
:10221300220F3300000E0001191618161618230397
:102223000000034A49434E181A2505023030171897
:102233001921301B1D1F30303016181920231A1C8A
:102243001E3000393D3F373C3C362C442D0C0E02EA
:102253000B040B0A0708000F020402010101010924
:102263000200000000000000BE040A0E003C003C17
:1022730000E8030C1503090404FF1E1E08280404C8
:1022830008050A0C74F7120418E99003B8F09003D8
:102293006DE4F012187C9003BDE4F0A3F09003B951
:1022A300F0A3F0120F1612188290033CE4F0A3F08F
:1022B300121D20023B4D74F2120418EAFEEBFF5488
:1022C3008060689003B8E0F91218EE8A088B09EA77
:1022D3004509604F7C0080010CEC75F003A4F8A95C
:1022E300F074F328F582742139F583E493F4602CB8
:1022F300E493F88508828B83E06870DCAA08EC75A8
:10230300F003A4F874F428F582742139F583E49377
:10231300C0E0740193F583D0821205EEAA08AB09DD
:102323001218DCEEFAEF64800224B1EF5420601E31
:10233300120E328A088B09EA4509600A120D9CAA1B
:1023430008AB091218DCEEFAEF64200224B1EEA206
:10235300E0501F900372E0640F70117900120D7248
:10236300E96009901006124E2F120D8AEE640102E5
:10237300248354207003022487750C007A207B0089
:102383009003B8E0F9121A4AEA4B4C4D701790804B
:102393007E1207587A207B009003B8E0F9121A3EA8
:1023A300740412092D7C0079047A007B00120E0E4E
:1023B3008A088B098018850882850983A3A3A3A3B0
:1023C300A3A3A3A3A37401F0850A08850B09E50859
:1023D3004509700302245B7C007904AA08AB091247
:1023E3000E0E8A0A8B0B750C01E5082404F8E435FC
:1023F30009F988828983125BA11227F7F8A3E0F910
:10240300E84970C4850882850983A3A3A3A3A3A372
:10241300A3A3A3A3E06401709D850882850983A318
:10242300A3A3A3A3A3E05404708C85088285098326
:10243300A3A3A3A3A3A3A3A3A37406F01252A2125C
:102443004964700374B7F0E0FA8508828509831242
:1024530025EC120D840223CB120DDE7C0079017A68
:10246300007B00120E0E8B09EA45097010E50C7013
:102473000C7A207B009003B8E0F9121A44EE642032
:10248300FAEF802AEF5402600A120F10EEFAEF649B
:1024930002801BEF54046019124A381249887901EB
:1024A30090036B124E2F120CACEEFAEF6404FB8018
:1024B300047A007B008007A90A740312092D7F06A2
:1024C3000206D3C082C08374EA1209C67C167D005B
:1024D3007900AA18AB191218BE7408120BBB740248
:1024E300F0900361124D5E1225057409120BBB12A5
:1024F30049887413120BBBE412493D121D14741660
:10250300800EE8F0A3E9F090036B1252B522740831
:1025130012092D0247EC74F712041874DF1209C66E
:10252300EAFEEBFFEE4F602DAC18AD19120E50749E
:1025330006120BBBE0601E7417120BBBE0FD7401A7
:10254300120BBBE0FCEEFAEFFB7900120BD4E9604F
:102553000479A4800279007421023B4A74F71204BF
:1025630018EAFEEBFF8E828F83A3A3A3A3A3A3E0AA
:102573005440601C8E828F8312382EFAA3E0FB1224
:102583000EC8E960067AFF7BFF8015125381800332
:10259300900361124E2F74FE6A700374FF6B6035F3
:1025A30012538112542B120EC8E98E828F83600559
:1025B3001234A180031234B41234BD121D1AE9F58A
:1025C300087015EE4F60097901EEFAEFFB120DEA80
:1025D300A908023B4D7508CDAA088E828F83122568
:1025E300EC120D84E960DC80E7125B46E0F92274AB
:1025F300F6120418E9FEEAFF7A0F7B001218D6EAF6
:102603004B601F8A828B83740CF0EEA3A3F0EF8AD6
:10261300828B831238EE9003B8E0F91218E2790046
:10262300802FEEF9120E148A088B09A808A909E86D
:1026330049601C88828983A3A3A3A3A3A3A3A3A301
:102643007406125812E0F9120D36EEF9120DF079F4
:102653001002492E74F4120418900372E0640F7090
:1026630030EA4B602C90036DE064086005E064047D
:10267300701F8A088B09E4F50AF50B780812091212
:102683007A017B009003B8E0F9121A387404120936
:102693002D022D5874F412041874FC1209C6EAFEB4
:1026A300EBFF8E828F83A3A3E0F9120E148A088BAB
:1026B30009EA450970030227E68E828F83A3A88265
:1026C300A983E0C0E0EA240B124712D0E01227F7F7
:1026D30064F160288E828F83A3E064CD601E8E82B6
:1026E3008F83A3E0641A60148E828F83A3E064E96E
:1026F300600A8E828F83A3E064E170407900120D3B
:10270300EAE96038E5082404F50AE43509F50B85A0
:102713000882850983A3A3A3A3A3A3124D418E8299
:102723008F83A3E0F9850A82850B83124E2F12183B
:102733008E850A82850B8312542B80768E828F833B
:10274300A3E0C0E07402120BBBD0E0123272125A43
:10275300A8123245C0E07403120BBBD0E0F0E508C9
:10276300240CF582E4124964AA18AB197005120C03
:10277300948003120EB07402120BBBE064E9703252
:10278300850882850983122FE4750A01780A1209E4
:102793001E750AE9780A12091E12373C123259FCD7
:1027A300A3E0FD8A828B83124E2F120E86740212CF
:1027B300092D850882850983A3A3A3A3A3A3A3A3A8
:1027C300A3E064027012850882850983A3A3A3A3EF
:1027D300A3A3A3A3A37406F08E828F83A3A3E0F91C
:1027E300120DF0120DDE90100A124E2F120D8A7484
:1027F30004022D55125822E02274F4120418EAFE42
:10280300EBFF7508008E828F83A3A3A3A3A3E060CD
:102813003B750808124E2279FF121DF88B0BEA450F
:102823000B601075082C8E828F83A3A3A3A3A3E050
:10283300D2E0F08E828F83A3A3A3A3A3E054036407
:102843000160030228F34308110228F3EE2418124F
:102853003DDB6036EE241A123DDB6003F470121286
:1028630054E47003A3E06960030228F3750822802F
:102873007FEE241B124D3BEE241A123DDBFAEE24AD
:1028830019123DDBF9120D248066124E22120EC876
:10289300E9640270037508011254E47003A3E0694C
:1028A3007006E508D2E1F508E50860158E828F838E
:1028B300A3A3E07006E508D2E58004E508D2E6F5B7
:1028C30008124E22120EC8E964017006E508D2E030
:1028D300F5088E828F83A3A3E06015EE241D1238C2
:1028E30028F9120EB6E964016006E508C2E0F508AE
:1028F300A908022D5874F012041874DC1209C6EAF0
:10290300FEEBFF8E828F83A3A3A3A3E0601190103D
:1029130008124E5F6009901008124E2F120D8A7430
:10292300031209BE8E828F83A3A3A3124B38124EC8
:102933002D120E50E97003022A7F79017405120BE0
:10294300BBE0C394024001197407120BBBE0C394AC
:102953000240027900740C120BBBE064F87003A30D
:10296300E0F47003022A7F740C120BBBE064F9706D
:1029730003A3E0F47003022A7F740C120BBBE06420
:10298300FA7003A3E0F47003022A7F740C120BBBEA
:10299300E064FB7003A3E0F47003022A7F74061261
:1029A3000BBBE0F890035BE0686003022A7FE9A2B7
:1029B300E04003022A7FEE24131252AB7422120B5F
:1029C300BB12499B241C1252AB7410120BBB12494D
:1029D300887409120BBBE0601D741A120BBBE0FD77
:1029E3007404120BBBE0FC8E828F83124E2D79018F
:1029F300120BD4E9703D74031209B6120D96E9F572
:102A0300087409120BBBE0702E900355E060287424
:102A1300225508642260207442550864427014747D
:102A230020120BBB122CA9600E7420120BBB122CAC
:102A3300A260047ACF8047E9A2E6504A7420120BC1
:102A4300BB12382E24FD600B14600824FD6004249F
:102A5300FD70297420120BBB122C9B700F74201273
:102A63000BBBA312492AA3E0640D601A7403120975
:102A7300B6120EE0E96401700D022C8F7AD37B004D
:102A8300121B88022C8FEE242DF582E43FF583126E
:102A93002FDE7003A3E069701F750900780912091E
:102AA3001E780912091EEE242F123DDBF9122CAFFA
:102AB300120E86740212092D7409120BBBE0700307
:102AC300022B61122CAF120F3A8A0A8B0BEA450BC9
:102AD3007003022BFF7404120BBBE0F88E828F830A
:102AE300A3A3E028F8A3E03400F9E8240D122C9402
:102AF300F88A828B83A3A3A3E0686013E88A828B9E
:102B030083A3A3A31238DCE4F0A3F0A3F0A3F0792A
:102B130004E9120BBB12324AE02AF8A3E03400881E
:102B230082F583A3AA82AB831218CA8A0C8B0D8CFD
:102B33000E8D0F850A82850B83A3A3A3A3780C12A2
:102B430008D54003022C8F908082780C120AA58549
:102B53000A82850B83A3A3A3A3780C120B529003C1
:102B63006DE064046008E064096003022C8FE508EB
:102B7300A2E54003022C39EE242F123DDB85188297
:102B8300851983F0EE2430123DDBC0E07401120B93
:102B9300BBD0E0F0EE2431123DDBC0E07402120B37
:102BA300BBD0E0F07414120BBBE06401702D740E03
:102BB300120BBB1252B1EE2413123DDB687003A358
:102BC300E0697017740C120BBB124E2F120EC8E97A
:102BD300640270077414120BBBE4F0EE2425F58233
:102BE300E43FF58312075874041209BE74071209EF
:102BF300B6120C9A740412092D022C8F9003B2E0C2
:102C030064016003022B617420120BBB122CA970A8
:102C130009E508A2E65003022B617410120BBBE016
:102C2300F47003A3E0F46064EEFCEFFD7403120997
:102C3300B6120DA28056A2E650527420120BBB129C
:102C43004D357016741A120BBBE06402703E7403A8
:102C53001209B67900120EAA80327420120BBB122D
:102C63002CA27014741A120BBBE06404701E74035C
:102C73001209B6120E9E80147420120BBB122C9BE9
:102C8300700A790074031209B6120EEC7424024719
:102C9300B1F582E41259722212538BE064032212BB
:102CA300538BE0640722123B64640622EE242BF567
:102CB30082E43FF583124D45EE2413122D4A22740C
:102CC300F4120418EAFEEBFF8C088D09900F88E0DC
:102CD300600F1254E47003A3E0697005120D1280B3
:102CE3004D7900124E22120D428A828B83E5824572
:102CF300836033A3A3A3A3A3A3E054186028E50828
:102D0300241C12471212075CE508241312471212FF
:102D1300075CEE2418123DDBF9122D33120D5474A7
:102D23000412092D80087900122D33120D18802505
:102D33008E828F83A3A3A3A3A3A3A3A3A3124D450F
:102D4300EE240B122D4A22F582E43FF583125ACE6C
:102D5300FB2212092D7F040206D374F712041874A0
:102D6300F71209C6EAFEEBFF90036DE06403600D02
:102D7300E064016008E064096003022E588E828FCC
:102D830083A3E06003022E2E7C007D007A027B0089
:102D93001218881255E28A828B831252B190035E15
:102DA3001249887953121CFC790090036B124E2F41
:102DB300120CAC90036DE06409600990036B124E32
:102DC3002F120F34851882851983740112493D79B6
:102DD30042121CFC90036D7404F074011209B6795D
:102DE3004A121CF674011209BE7A637B03121A6E2F
:102DF30090035E124D417A037B00121888900361A1
:102E0300124D417A047B00121888900358E0A2E324
:102E13005004D2F08002C2F01249337952121CFCE2
:102E2300901006124E2F120D8A80278E828F83A355
:102E3300AE82AF83FC7D007A037B101218888E82EA
:102E43008F83E0F990036B124E2F120CAC90036D3D
:102E5300E4F0120DCC7409023B4AC082C083900394
:102E63003C124E5F701F90036DE014600924FC60F8
:102E73000A14600C800F9003448034900340802F29
:102E8300900342802AE849600890033D1232537050
:102E93000C8A828B83A3E0F9120CA0801D90033C63
:102EA300124D4B64027005120F04800E9003DA1268
:102EB3004E5F600612492A1205EE0247EC74F412C3
:102EC300041874FB1209C68A088B097A0F7B001257
:102ED30018D68A0A8B0BAE0AAF0BEE4F7003022F84
:102EE300D98E828F83740212493D7950121CF68564
:102EF3000882850983A3E06003022FBC90036BE083
:102F0300F47003A3E0F4604090036BE064FE70038D
:102F1300A3E0F46033851882851983122FDE7003D2
:102F2300A3E0696023850882850983A374EA1232CA
:102F33006A121CFC7A617B03794B121CFC7A6B7B53
:102F4300037950121CFC80718518828519831255F0
:102F5300B5E8F0A3E912326A121CF690035E123749
:102F6300541249887A617B03794B121CF67A607B91
:102F73000379E1121CF6900372E0C3940F501D9085
:102F83000360E0C0E07402120BBBD0E0F0740412E3
:102F93000BBB7401F0041209B6121D0E750A0078FA
:102FA3000A12091E780A12091E900FF5E0F912346D
:102FB30094120E86740212092D85088285098312E4
:102FC30052D7A3F090036D7403F0EEFAEFFB900376
:102FD300B8E0F91218E27405022D551255B9E068EC
:102FE300221252B5E8FAE9FB2274F512041874D1DF
:102FF3001209C68A088B098A828B83123C50741C7F
:103003001209BE8A828B83A3A3A3A3A3A3A3A312A0
:103013003259FAA3E0FB120DD2741C120BBBE07001
:103023002B850882850983A3A3A3A3A3A3A3A3E05A
:10303300C3940B40178E828F83A3A3A3A3A3A3A33D
:10304300A3E064027006123245F46003023240903A
:10305300036DE064027003023124E064067003022E
:10306300312490033C124E5F600812325370030206
:10307300315990036DE064086008E0640460030262
:103083003240741E120BBB12324AA3A3A3A3123CF9
:103093005090033CE0F8496007124D516402607799
:1030A30090036BE06E7003A3E06F60030232407421
:1030B300016A60167423120BBBAC82AD837A7F7BEB
:1030C30003121A68E960030232407A007B0290031C
:1030D300B8E0F9121A4AEA4B4C4D600302324090B1
:1030E300036E120B98851882851983120B8C90033B
:1030F30074E0C0E07404120BBBD0E0F07405120B53
:10310300BB7401F07406120BBB740212493D120C1E
:103113006AE9600302323DEEFAEFFB120EFE023261
:103123004090033C124E5F702D7508007808120919
:103133001E780812091EEE2410F582E43FF583126F
:103143004B39A3A3A3A3A3A3A3A3A3123832120EA1
:1031530086740212092D8E828F831252B174071264
:103163000BBBE8F0A3E912375E1252B17409120BDC
:10317300BB12499B12425BC0E0740B120BBBD0E045
:10318300F0124C68123748740F7808120B61740CF4
:10319300120BBBE508F07420120BBBE0C0E0740D0A
:1031A300120BBBD0E0F07422120BBBE0C0E0740E34
:1031B300120BBBD0E0F0741D120BBBE0C0E0741027
:1031C300120BBBD0E0F0741E120BBBE0C0E0740F17
:1031D300120BBBD0E0F0EE2410123DDBC0E0741103
:1031E300120BBBD0E0F07421120BBBE0C0E07412F1
:1031F300120BBBD0E0F0742E120BBBE0C0E07413D3
:10320300120BBBD0E0F07423120BBBA982AA8389F3
:10321300088A09750A0078081209167C087D00746B
:1032230017120BBBAA82AB831218B2740312092DB7
:1032330074071209B6120CA68003120C70742F02C5
:103243005BB0124C6CE022E0FA8E828F83A3A32240
:10325300124D52640122E0F98A828B83A3A3A3A3B4
:10326300A3A3A3A3A3E022F07A5E7B0379532212E4
:10327300327622F08518828519832274F21204189B
:1032830074F81209C6EAFEEBFF8C0A8D0B890C90C9
:10329300802CAC18AD197408120876F50DEEFCEF0E
:1032A300FDAA18AB19121A68E97003750D01900392
:1032B300B9801AEEFCEFFDE508240BFAE43509FBAF
:1032C300121A68E97023E508241412471212330214
:1032D3006024E50DA2E040DB850882850983E06573
:1032E3000A7004A3E0650B70DD850882850983A35A
:1032F300A3E0650C70D0AA08AB0974080224BE12BF
:10330300374CE508450922C082C0839003B90247C0
:10331300E974F71204189003B9125ACE800C1251B3
:1033230009123C5312198AEEFAEFFBEA4B70EF9045
:1033330003B9E4F0A3F0023B4D7F070206D374F117
:10334300120418EAFEEBFF890A8C088D098E828F1E
:1033530083E08C828D8312449CAE82AF83E012455E
:1033630086124774C412458612340BE054038C82D0
:103373008D83124772A2E2E4338C828D83124771EC
:10338300131313541F124586124770A2E7E4338CBC
:10339300828D83A3A3A3A312340B8E0C8F0D750E02
:1033A30000780C1209167C087D00E5082407FAE46E
:1033B3003509FB1218B2740312092DEE2408FE50CE
:1033C300010F8E0C8F0D780C1209167C037D00E51E
:1033D30008240FFAE43509FB1218B2740312092DFD
:1033E300E50AC3940F40158E828F83A3A3A3E0C085
:1033F300E0E5082412124712D0E08008E508241201
:10340300124712E4F002333CA3A312449C0EAF8391
:103413002274F51204188A088B098A828B83A3AE5F
:1034230082AF83E0F9120CC48E828F83E064EB6079
:1034330024850882850983A3E064E16018850882F6
:10344300850983A3E064F1600C850882850983A361
:10345300E0641A7009850882850983A3E4F090105B
:1034630006124E2F120D8A750A01780A12091E855B
:103473000882850983A3E0F508780812091E7900FC
:10348300123494120E86740212092D120DDE025BA1
:10349300B390036B124D45900361122D50221234E9
:1034A300A8E4F0A322E0F8A3E0C8123EAA38F5830B
:1034B300221234A87401F0A3E422F07C787D0D8EEF
:1034C300828F83122D5022EAF0A3EBF00247EC74B3
:1034D300F61204189003BCE0701B7C0079017A009B
:1034E3007B00120E0EEA4B600C8A828B83124E5FB6
:1034F3006003120D7E02492EC082C0837904120E2E
:1035030008E9F8902284E493C398401079FF120EDF
:1035130008E9F8902286E493C39850047901800265
:1035230079000247EC74F01204188A088B09890B9E
:10353300750C008A828B83A3A3A3A3A3A3A3A3E0F5
:10354300F9120E148A0E8B0FAE0EAF0F750A01EE31
:103553004F6003023605850882850983A3A3A3A3CD
:10356300A3A3124D41850882850983A3A3A3A3A323
:10357300A3A31242A5124E2F120DFC8A0C8B0DAE83
:103583000CAF0DEE4F70030237348E828F83A3A3EB
:10359300A3A3E4F0A3F0E508240CFAE43509FB8ABD
:1035A300828B83E0C0E012373CD0E0F0120ECEEE07
:1035B300240D125425E5081255D535091252AFEEE4
:1035C300240F124982750C01EE240612424F547FD8
:1035D300F0A3E054FC1227F75404600302367C90F6
:1035E300100EE0F50875090074077808120A6C8E4E
:1035F300828F83A3A3A3A3A3A3E04508F0A3E0457D
:1036030009F08E828F83A3A3A3A31237467407788E
:1036130008120B61E5085407F508E50B606B8E8211
:103623008F83A3A3A3A3A3A3A3A3A3740212477586
:10363300123A2D600B900359123754A3A3124988F1
:10364300E5087003023703EE2406125B1F547FFC68
:10365300A3E054FCFDE50824FFF508E434FFF50975
:1036630074077808120A6CEC4508F8ED4509F98AE5
:10367300828B831249880237038E828F83A3A3A38D
:10368300A3A3A3E04480023604E5087005750A008D
:10369300806E8E828F83A3A3A3A3A3A3E054206091
:1036A3000C1218D0EA547F7900245F80198E828F20
:1036B30083A3A3A3A3A3A3E05410601A1218D0EA10
:1036C300540F7900240A5001098E828F83A3A3A388
:1036D300A3F0A3E9800D8E828F83A3A3A3A3740118
:1036E300F0A3E412375E74041239B0121A4AEA4B9B
:1036F3004C4D700C7A207B009003B8E0F912191836
:10370300E50CA2E0502E8E828F83A3A3A3A31250B5
:1037130081F9EEFAEFFB120E02E96018124E5860BF
:1037230009123B73124E2F12198AEEFAEFFB12198C
:103733008A750A00A90A0247B4EE240CF582E43F15
:10374300F58322A3A312374C22E0F508A3E0F50981
:10375300221252B58E828F83A3A322124948A3A3B8
:10376300A32274F412041874F71209C67E00120E11
:1037730014EA4B70030238218A828B83A3A3A3A389
:10378300A3A3A3A3A3E0640660030238218A828B68
:1037930083A3A3A3A3A3A3A3E0FF8A828B83125BC8
:1037A30053E0C0E07408120BBBD0E0123B5D124D36
:1037B30063124988120E26EF5408606085188285CB
:1037C3001983124D417A007B00120DF68B0BEA45EB
:1037D3000B7049125BAA121D2C7C007D007A007BC2
:1037E3000080258E828F8312382EF47003A3E0F4B9
:1037F300602A90036B123832121D26E9641A601C8A
:103803007C007D00EEFAEFFB120DF68A0A8B0BAEFD
:103813000AAF0BEE4F70CC7900121D327E01EEF928
:103823007409022D55F582E43FF583123B6422129D
:10383300508F122D5022C082C083EA4B7005900333
:10384300BD80068A828B83A3A3123A6160208A8299
:103853008B83A3A3A3A3A3A3A3E0540860E5EC4D28
:103863006010123A677003A3E06D70D780047A008A
:103873007B000247EC74F2120418EAFEEBFF890A9C
:103883008C088D097A117B00121984EA4B60408AF7
:10389300828B83A3A3A3A3A3A3A3A3A3E4123B5257
:1038A300A3E50A1238DCA3A3125AA88A828B83A346
:1038B300A3A3A3E4F0A3123B6D1238EE8A828B8399
:1038C300EEF0A3EF123EA1E4F01238D5F0A3F0021C
:1038D30024C1A3125B71A3A3221238E0221238E49D
:1038E30022F08A828B83A3A3A3A322A3F0125B9368
:1038F3003BF583E4F02274F4120418EAFEEBFF892B
:10390300088C0A8D0BEE4F70030239AB7401650806
:1039130070127901120E08E9F8902283E493C39898
:10392300502280167404650870147904120E08E995
:10393300F8902284E493C398500A7911806C74023E
:10394300650870648E828F83A3A3A3A3A3A3A3A3F9
:10395300A3E5081244EA1252BC8E828F83A3A3E428
:10396300F0A3F09003BD124E5F601A8003E0F8A34A
:10397300E0F988828983A3A3123A6188828983A3A9
:10398300A370EA80039003BDEEF0A3EF1239B012E7
:103993001A4AEA4B4C4D700C7A207B009003B8E036
:1039A300F91219187900800279C1022D58F07A2092
:1039B3007B009003B8E0F922C082C083E9F8790064
:1039C3009003BD801D8A828B83A3A3A3A3A3A3A378
:1039D300A3A3E068600574FF687001098A828B8382
:1039E300A3A3123A6170DE0247EC74F7120418EADB
:1039F3004B70059003BD80068A828B83A3A3123A82
:103A03006160208A828B83A3A3A3A3A3A3A3A3A3FD
:103A1300E06970E4EC60108A828B83E0123A2D70C7
:103A2300D780047A007B00023B4D1234A9E0540492
:103A330022C082C0839003BD80068A828B83A3A3A6
:103A4300123A6160128A828B83A3A3A3A3A3A3A3C5
:103A5300A3E06970E580047A007B000247EC122D35
:103A630050EA4B228A828B83123B646C2274F212DB
:103A730004188A0A8B0B8C0C8D0D750800750900D0
:103A8300EA450B60309003BD80068E828F83A3A32B
:103A9300123C53EE4F601EAC0CAD0DEEFAEFFB85FE
:103AA3000A82850B831205EEE9640170DDEEF8EFFF
:103AB300F988088909AA08AB090224C174F712041A
:103AC300189003BD1252B17C007D00800DE8FCE923
:103AD300FD88828983A3A31252B1E8496030EA6862
:103AE3007002EB6970E79003BD124E2FE86A700213
:103AF300E96B88828983A3A370081252B19003BD36
:103B030080091252B18C828D83A3A3124988803A13
:103B130074F7120418EAFEEBFFEE4F6028120E2032
:103B2300123B7F12198A8E828F83124E2F12198AAB
:103B3300124E586009123B73124E2F12198AEEFA75
:103B4300EFFB12198A800312092D7F010206D3129B
:103B53003B56221238E4A3A3A322125B71123B64E7
:103B630022124A4AF5838882E022123B56A3A322FB
:103B7300123B7722EE123EAA3FF583228E828F8379
:103B8300125AFD1253AD122D4E22C082C083EAFC9D
:103B9300EBFDEC4D6017EC24FBF582ED34FF124E88
:103BA3005D7007123BE7E0F460071218DC790580CB
:103BB300309003B8E0C0E0123BE7D0E0F0902285FC
:103BC300E493F97ABF7B03121912E9640170107A46
:103BD300007B209003B8E0F912191879008002796C
:103BE300040247ECEC24FFF582ED34FFF5832274E5
:103BF300F4120418A2AFE433F508C2AF9003BF1266
:103C03003C53EE4F603AEE24FBF582EF34FF124E45
:103C13005D7A007B209003B86007E0F912191880E1
:103C230005E0F912191EE4F50AF50B780A12091AD0
:103C3300EEFCEFFD7ABF7B0312190C740212092DFF
:103C4300E508A2E092AFEEFAEFFB022D58A3A3A37F
:103C5300E0FEA3E0FF2274F212041874FC1209C6FA
:103C6300EAFEEBFF750AFE750BFF120DE4E9600532
:103C73007911023DCEEE2415123DDB603590102202
:103C8300E0C43354E0F8E0333354FC48C0E012445A
:103C9300ADD0E0125B63FAA3E0FB79FF121DF88B52
:103CA30009EA4509600C750AFF124B28124955D2DF
:103CB300E0F08E828F83124E2D120EC8E96006EE5D
:103CC3002412125B30EE2413123DDB700D90227E22
:103CD300E493C0E0125077D0E0F08E828F83E0A2AD
:103CE300E7500454038019EE2414123DDB70129044
:103CF300034AE0C0E0125B0BD0E0F090034AE0041B
:103D0300F0123DD864017016900F77E0600D9003B8
:103D130055E0700A8E828F83E07003125B2D8E82D2
:103D23008F83E064017013EE240B12382864027051
:103D330009EE240F123DDB4440F0AC18AD19EEFA46
:103D4300EFFB120E4A8A088B0974FE650A7003742E
:103D5300FFF4700D8E828F83A3A3E0F50AA3E0F531
:103D63000BEA450960618E828F83E0C0E074011223
:103D73000BBBD0E0F07402120BBB1255CF740112CF
:103D830009AE880C890D780C12091A123DD312075B
:103D93005CEE240E123DDBF50C780C12091E900329
:103DA3005E12075C7407120BBBE0F9AC0AAD0B1291
:103DB3000E44740712092DE9FE74106E700BAA08E5
:103DC300AB0912198A80027E10EEF974040224BE34
:103DD300EE124B3022EE2411F582E43FF583E0220C
:103DE300C082C08374DC1209C68A828B83A3A3A317
:103DF300A31252B1740E120BBB125B69A3A312522E
:103E0300B1740C120BBBE8F0A3E9123EA1E0C0E0D1
:103E1300741A120BBBD0E0F0EA1252A43B1252AF59
:103E23007420120BBB124988EA24151248BBC0E068
:103E33007408120BBBD0E0F0EA241CF582E43B12B9
:103E430052AF7412120BBB124988EA24111248BBF9
:103E5300C0E07409120BBBD0E0F0EA24121248BB95
:103E6300C0E07407120BBBD0E012327274FFF0741F
:103E730001120BBB74FFF07402120BBB74FFF090C2
:103E8300806612075874041209BE74071209B61229
:103E93000C9A740412092D79007424022513F0EA94
:103EA300123EAA3BF58322240DF582E42274F41218
:103EB300041874EF1209C6EAFEEBFF8C088D09891A
:103EC3000B750A107A217B001219848518828519D3
:103ED3008312542B851882851983124E5F70030257
:103EE3003FB37C217D007900851882851983E0FA30
:103EF3001218BE90036B124E2F85188285198312F8
:103F03005AFD2409F582E438125429741D120BBB9F
:103F13001252B1740F120BBBE8F0A3E9123FBA12AD
:103F23005B39123FBA125B5A74021242AFF8A31202
:103F3300492AE508F0A3E509123FBA125B02E50B33
:103F4300F0741F120BBBE0FA851882851983125B8C
:103F530042EA123FBA1253ADF5831255CF742012C1
:103F63000BBB1252B17406120BBB124988740812B0
:103F73000BBBEAF07422120BBB125385C082C083C1
:103F8300740C120BBBAC82AD83D083D0827403124A
:103F93000876F9AA18AB19120DEAE96401700575E0
:103FA3000A00800C851882851983124E2F12198AF4
:103FB300A90A7411022D551242B3F8A3E0C8227462
:103FC300EE120418EAFEEBFF8C088D098E828F83B4
:103FD300A3740812498EE060088E828F83A3741045
:103FE300F0EE2417123DDB60098E828F83A3E02459
:103FF30008F0EE2415123DDB60088E828F83A3E068
:1040030004F08E828F83A3A3A3A3A3A3E060198EDE
:10401300828F83A3A3A3A3A3A3A3E0C3332402F8A0
:104023008E828F83A3E028F0123DD86005750B0EB6
:104033008003750B008E828F83A3E01242592825DB
:104043000B8C828D83F0123DD86011900356E0F9FA
:10405300120BDA850882850983E029F085088285B9
:104063000983E0C39475400975080075090002428D
:1040730048E0FA7B001219848A088B09EA45097023
:10408300030242488E828F83E0FA90035B12426DF3
:104093007402780C120A6CEA450CFAAB0DEE24128A
:1040A300123DDB5403F50C750D007406780C120AEF
:1040B3006CEA450CFCEBFDEE2415123DDB60047845
:1040C3000180027800EE2416FAE43FFBE8F9ED499B
:1040D300FD123DD8F50C7409780C120A6CED450DF0
:1040E300FD8A828B8312426D740B780C120A6CED7D
:1040F300450DFD1244A312426D740C780C120A6C28
:10410300ED450DFD8E828F83A3A3A3A3A3A3124228
:104113006D740A780C120A6CECF8ED450DF9E8851C
:104123000882850983F0E9A3F0EE240212424F8549
:104133000882850983124291F0EE2404F8E43FF9E2
:1041430088828983124726A3124291A3A3F0EE2407
:1041530013124274F0EE2414124274A3F0750A0889
:104163008A828B83E06015EE2418124D3BE5082408
:1041730008FAE43509FB121A6E750A10EE241712B9
:104183003DDB601BEE241A124D3B850A0CE5082526
:104193000CFAE43509FB121A6E7408250AF50A8E27
:1041A300828F83A3A3A3A3A3A3E06059EE2407F5FF
:1041B30010E43FF511851082F583E0C0E012470B50
:1041C300D0E0124281E0C0E012470BD0E0124281FE
:1041D300A3124260120916851082851183E025E03F
:1041E300FCE433FD850A0CE508250CFAE43509FBEC
:1041F3001218B2740312092D851082851183E0C34E
:1042030033250AF50AEE2415123DDB6008C0E012DF
:10421300470BD0E0F0124C681242601209161242AA
:104223005AFC7D00850B0A8E828F83A3E0F8E50894
:1042330028F8E43509F9E8250AFAE439FB1218B23B
:10424300740312092DAA08AB090244FAF8E43FF9F2
:1042530088828983E022F8EE123B78E022E0F50CB5
:10426300A3E0F50D750E00780C22E0F50C750D003A
:1042730022F582E43FF58312429AA3A3A322F00519
:104283000A8E828F83A3A3A3A3A3A3A3A322A3A37F
:1042930012581D12429A2212472AA3A32274030220
:1042A3002D55A3E0F9850882850983221242B322A2
:1042B300123276E02274EE1204188A0A8B0BECFE9B
:1042C300EDFF750F01E9C3940850030244358E8254
:1042D3008F83E9F01244D8120E56E96003750F007C
:1042E3001247338E828F8312477CEE1252A43F1201
:1042F3004766C0E0EE2411F582E43FF583D0E01277
:10430300475EC0E0EE2412F582E43FF583D0E0126D
:10431300449C74081244EAA3A3A3E06018E50A24AA
:1043230008F8E4350BF9EE24131249828E828F8349
:10433300A3E02408F08E828F83A3A3A3A3A3A3A344
:10434300A3E0601B8E828F83A38582088583091275
:1043530047461244ADE8F0A3E9124B472408F08E18
:10436300828F83A3A3A3A3A3E0600F1244BB8E8217
:104373008F83A3A3A3A3A31244F1EE2419125B30EA
:10438300EE241B125B30A3F0EE2418123DDB700306
:104393000244251244BBFAEE2419F582E43FF58367
:1043A300EA1244F11244CBF8124B4BE81244F1E801
:1043B300C39AEE50682419123DDBF8902276E493F9
:1043C300C398500575110C8008EE2419123DDBF5D6
:1043D300118E828F83A3E0F8E50A28F50CE4350BF0
:1043E300F50D750E00780C120916AC11EC2CFCE4DB
:1043F30033FD7A6D7B0D1218B2740312092DEE246E
:104403001BF582E43FF583746DF0A3740DF0E511A1
:10441300C333F8850882850983E028800412495B49
:10442300E4F08E828F83A3E0F88E828F83E0C398BB
:10443300500479008061A3E0FAE50A28F8E4350B1B
:10444300F9124C5CE8F0A3E9124775C39AC0E01275
:1044530044A3D0E0124943603CEE2417F8E43FF94B
:10446300880889098882F583E024F2F0EE241D127E
:10447300424F240EFAA3E03400FB8882898312544E
:104483002B900356E0F9120BDAE9F88508828509C7
:1044930083E0C398F0A90F805EF08E828F83A322FE
:1044A300EE2417F582E43FF583221244B122EE2471
:1044B30015F582E43FF583228E828F83A3858208DC
:1044C300858309E01244CB22F8E50A28F582E43516
:1044D3000BF583E0228A828B83E0FAA3E0F8E4C839
:1044E300F9EA28E439FB2212449CA3A3A322124B2A
:1044F3005504F02212092D7F0A0206D374F4120424
:10450300188A088B09EA12458DF0EA1313543F12F7
:104513004586A3A3A3F0EAC4131312458DA3A3F006
:10452300EB12457F1245977409780A120B61124505
:104533007D124596740A780A120B61E50A5401C08C
:10454300E0EC2418F582E43DF583D0E012459C7439
:104553000B780A120B6112457DA3124596740C78F1
:104563000A120B6112457DA3A3A3A3A3A3A3A3F0E4
:10457300740D7808120B610228F3E50A54018C824A
:104583008D8322540F8C828D832254038C828D83DE
:10459300A3A322A3A3A3A3A3A3F08A0A8B0B22C0E2
:1045A30082C08379008A828B83A3A3A3A3A3A3E0FE
:1045B300900355600EE070228A828B83A3A3E07080
:1045C300198016E060148A828B83124E2690035E54
:1045D300E06A7003A3E06B6001090247EC74F01218
:1045E30004188A0A8B0B890C8C088D091244D81283
:1045F3000E5612473385088285098312477C12526F
:10460300A23509124766C0E0E5082411124712D00B
:10461300E012475EC0E0E5082412124712D0E01210
:1046230047517408124751A3A3A3A3A3A3E06017A0
:10463300E50A2408F8E4350BF9E508241312471AB0
:10464300124751E02408F0850882850983A3A3A3B8
:10465300A3A3A3A3A3E06017850882850983A312FC
:104663004742E508241512471A1247752408F085B6
:104673000882850983A3A3A3A3A3E0601985088205
:10468300850983A3AE82AF831244C6850882850958
:104693008312477004F0AA08AB09120E5CE9F50D0A
:1046A3007059850882850983A3A3A3A3A3A31247F3
:1046B300267016E0FAE50A2AF8E4350BF9124703E7
:1046C300124986E50CC39A8026124742E8240EF865
:1046D300500109124703124986900356E0F9120B61
:1046E300DA8E828F83E0F8E50CC39824F2C399C075
:1046F300E0E5082417124712D0E0F0A90D0247B4F1
:10470300E5081253A7350922850A0CE508250CF59F
:1047130082E43509F58322F582E43509F583E8F06F
:10472300A3E92212472A22E0850882850983A3226E
:10473300850A82850B83A3A3124792E0F9EA22AE8E
:1047430082AF83E0F8E50A28F8E4350BF922124733
:104753005522F0850882850983A3221247A5A3A3C6
:10476300A3E022F583E812479EA3A3E022A3A3A319
:10477300A3A3F08E828F83E022A3A3A3A3A3A3A367
:10478300A3A312479E124792A3A3E0F9EAF822E0FB
:10479300FA850A82850B83A3A3A322F0A3E9124718
:1047A300A522F0850A82850B83A3A3A3A322120962
:1047B3002D7F080206D3C082C0837ACD7B0379E2C2
:1047C300121CF67ACD7B038020C082C08390035EE7
:1047D3008014C082C083900361800BC082C0837940
:1047E3004A121CF68003124E2FD083D0820208FA9D
:1047F30074F61204189003D5E0FE04F0EEF9120EDD
:10480300148B09EA450970EDEE60EAF902492E744A
:10481300F2120418EAFEEBFF8C088D09890A120FC5
:104823003A740E120BBBE0F8740F120BBBE0F9EAFB
:104833004B7012E9701BA90AAC08AD09EEFAEFFB45
:10484300120F588070E96017E870068A828B83E440
:10485300F0740169705FE89003DC7026E48020E85F
:104863007053EA24021248BB850A082508F8E43489
:104873000013E813F0703E8A828B83A3A37401F0C4
:104883008033E004F090100FE0F89003DCE0C3986D
:104893004023E4F0900361E06E7003A3E06F7015B2
:1048A300EEFAEFFB7901120CBE7A017B009003B89C
:1048B300E0F9121A440224C1F582E43BF583E022B5
:1048C30074F412041874016A4B700E7A017B009021
:1048D30003B8E0F9121918803790100612542BEA26
:1048E3004B60218A088B09E4F50AF50B7808120955
:1048F300127A017B009003B8E0F9121A387404129B
:10490300092D800C7A017B009003B8E0F9121A4458
:10491300022D58C082C0839010080234CAC082C0DE
:104923008390100A0234CA12538C227F020206D3E8
:10493300A2F0E433851882851983F0AA18AB1922F3
:10494300124948E022F08E828F83A3A3A3A3A3A3DB
:1049530022A3F01244B1E0222418F582E43FF58348
:10496300223509F583E022125B933BF5831255F957
:1049730022850882850983A3A31252B5EE2418F574
:1049830082E43FF583E8F0A3E9F022F0EE2416F584
:1049930082E43FF58322A3A3E8F0A3E9F0EE2274B7
:1049A300F4120418EAFEEBFF7A007B049003B8E0EC
:1049B300F9121A44124A3812498890036D7409F0A7
:1049C300120E688A088B09AC08AD09125077124E93
:1049D3002F121A68E9640170597A0F7B001218D6F6
:1049E3008A088B09EA450960498A828B837402121B
:1049F3004A42F988828983A3E0FC88828983A3A33E
:104A0300E0FBEC8A82850983A3A312542C88828954
:104A130083A3A3A3E08A82850983124954FAA3E0FE
:104A2300FB794A121CFCAA08AB099003B8E0F912FF
:104A330018E2022D5890033E1252B590100A22F04C
:104A4300124C60124A4A22E0F8A3E02274F41204E2
:104A53001874FD1209C68A088B097401120BBB7402
:104A63000212493D120EBC8A0A8B0BAE0AAF0BEE43
:104A73004F7003024B17125B7F700888828983A3F0
:104A83007420F0850882850983A3A3A3A3A3E0640C
:104A930001700988828983A3E0D2E6F085088285C4
:104AA3000983A3A3A3A3A3A3E06401700A88828953
:104AB30083A3E0D2E78003124B1C125B7770168549
:104AC3000882850983A3A3124E5F6006EE241612A3
:104AD30055ED124974850882850983A3A3A3A3A373
:104AE300A3A3E064017003125B1585088285098323
:104AF300124E2F120EC8E96004124B28F01255EA29
:104B0300120E68124B40124B37124999FAEFFB12FF
:104B13000C58800279100242A0EE2413F582E43F80
:104B2300F583740122124B2FE0440422EE1255D573
:104B33003FF58322F8A3E0F98E828F8322124B4B39
:104B4300EAF0A3EB124B5522EE241AF582E43FF56B
:104B53008322F0850882850983E02274F512041804
:104B630074F31209C6890AEAFEEBFF75080075099A
:104B7300007C0D7D007900AA18AB191218BE124CE7
:104B83005C124D2E741F58600C7AD37B00121B8865
:104B93007900024C59E8A2E55008740C120BBB745F
:104BA30001F0E8A2E75008740B120BBB7401F0E8A4
:104BB300A2E6740A5008120BBB7401F08008120BB2
:104BC300BBE0640170138E828F83A3A3A3A3A3A36B
:104BD300A3E06032EE241380128E828F83A3A3A3FB
:104BE300A3A3A3A3A3E0601EEE2415F582E43FF57F
:104BF300831233026010AC08AD097402120BBBAA16
:104C030082AB83121A6E124C68124D5E124988747D
:104C13000A120BBBE064017034124E22120EC8E973
:104C230070321252A8900361E0687003A3E06970C8
:104C330023E50845096016120E68EAFCEBFD7402D1
:104C4300120BBBAA82AB83121A68E96007AA18ABDE
:104C530019120CB8A90A025BAE124C6022EE125371
:104C6300A73FF58322124C6C22EE240BF582E43F1E
:104C7300F5832274F712041874D21209C6EAFEEB04
:104C8300FF8E828F83124D4BA2E04003024D298E8B
:104C9300828F83124970A3A3A3A3A3A3E054FE129C
:104CA3005828740D1209BE1253B4120E62E97076BD
:104CB300742A120BBB124D35706C7C0D7D0079008C
:104CC300AA18AB191218BE7416120BBB124D5E1242
:104CD3004988742A120BBB124D2EA2E55008740B9F
:104CE300120BBB7401F0E8A2E75008740A120BBB65
:104CF3007401F0E8A2E65004742080027422120BBF
:104D0300BB124D417402120BBBAA82AB83121A6E03
:104D13008E828F83A3A3E0C0E0740C120BBBD0E0A0
:104D230012493D120CB2742E023B4A125389A3E07E
:104D3300F822123B64640422F582E43FF583124DAA
:104D43004522E0FCA3E0FD22E0F8124D5122A3E04E
:104D5300C82406F582E438F583E022E0124D63228D
:104D6300F8A3E0F985188285198322E9F87900749C
:104D73000468600A740A68600574036870010902B4
:104D830008FA74F61204188A828B837420F0A3A3A2
:104D93007401F0120C5E8A088B09AE08AF09EE4F5E
:104DA30060168E828F837401F09003ABE07009125A
:104DB30055EA120E68125422EEFAEFFB02492EC096
:104DC30082C0839003C17401F0E9A2E3500374032A
:104DD300F0E9A2E15004E0D2E2F00247EC74F612EB
:104DE300041879007C008A088B09780812068DF86C
:104DF300FF07114E0F4E0F4E0F4E0F4E074E0B4E29
:104E0300114E0C4E7C0480060C0C80027C0890032F
:104E1300C1E05C6003098003EC60010902492E8E46
:104E2300828F83A3A3A3A3A3A3A3A3A3122D50227F
:104E330074F61204188A828B83E07012A3124E5FF9
:104E4300600C8A828B83124E2E121E1680047A0007
:104E53007B0002492EEE123EAA3FF5831252B5E8BB
:104E63004922C082C0837C00EC124EF27003A3E09F
:104E73006B701190227AE493C0E0124EE7D0E0F019
:104E830079C580510CECC3940340DD7C00EC75F0D4
:104E930003A4F8A9F074C528F5827403122C97644F
:104EA300FE7003A3E0F4600F0CECC3940340DE7CBC
:104EB30000EC124EDB7015EC12563112542B90227B
:104EC3007AE49388828983F0790080090CECC39497
:104ED3000340DE79C70247EC75F003A4F8A9F0128A
:104EE3004EE7E02274C428F582740339F5832275F2
:104EF300F003A4F8A9F074C528F58274031259725B
:104F03006A2274F512041874F31209C68A088B090D
:104F1300ECFEEDFF750A12EA4509700579000250AF
:104F23000390035EE065087004A3E065097019123D
:104F33000E68EAFCEBFDEEFAEFFB121A68E9700566
:104F4300750A018003750A00851882851983E4F0C8
:104F530004120BBBE508F0A3E50912493D120C222C
:104F6300E960297403120BBBAA82AB83120C04E918
:104F730064017018750A017403120BBBAC82AD8314
:104F8300EEFAEFFB121A68E9701E801F7412650AAD
:104F930070199003AAE064027011EEFCEFFDAA08F9
:104FA300AB09120C3AE96003750A00EEFCEFFDAAA7
:104FB30008AB09120F40E9F8740A687005750A0115
:104FC300803C74A0687037EEFCEFFDAA08AB0912B1
:104FD3000F4C7E008023EE75F017A4F8A9F0125948
:104FE300887004A3E06509700F125AB7120C04E924
:104FF3007006125781120F2E0E12500640D8A90ABE
:10500300025BAE90227BE493F8EEC3982274F7120E
:105013000418EAFEEBFF8E828F83A3A3A3A3A3A3AB
:10502300A3A3E060131244AD122D40120EDAE9641B
:10503300017005124C68802D8E828F83A3A3A3A3D6
:10504300A3A3A3E06029125077125081FAA3E0FBD7
:10505300120EDAE9640170178E828F83A3A3A3A3D0
:10506300A3A3A3A3A3124E2F120ED4790180027916
:1050730000023B4DEE2413F582E43FF583221250E8
:105083008FA3A3A3A3A3A3A3A3A3E022E0FCA3E072
:10509300FD8E828F832274F212041874FD1209C6E6
:1050A3008A088B09ECFEEDFF890B750A0174011266
:1050B3000BBB740412493D120EBCEA4B60457411DC
:1050C300120BBBE0601AEA2417F582E43BF583E494
:1050D3001255C88A828B83E0D2E7F0125109E4F0BB
:1050E30012496A74031252BEEE88828983A3A3F025
:1050F300EF88828983A3A31238D5125AA8120C58B9
:10510300E9F50A0224BAEA2414F582E43BF5832282
:1051130074F4120418EAFEEBFF890A124C5C125372
:1051230085A3E0F50BEE2417123DDB640460097AD6
:10513300D37B00121B88806FE50B1207E101000E81
:105143004B51004851750A00124C5CA3E0F9EE2460
:1051530009F508E43FF50988828983A3A3E0FA8867
:10516300828983A3A3A3E0F8E4C8F9EA28FCE4391D
:10517300FDA90B850882850983124E2F120CD08559
:105183000882850983124E2F120EC8E96019123D59
:10519300D8C394024011124C681254F17003A3E077
:1051A300696004A90A80027900022D5874EE120482
:1051B3001874F51209C68A0A8B0B890C8C0E8D0F95
:1051C3007E01EE120BBB740AF0741D120BBBE0F5EB
:1051D3000DE9700FE50DC333240AC0E0EE120BBBDB
:1051E300D0E0F0AA18AB19120EBC8A088B09EA4565
:1051F30009700302529BEA1252A4350912539274A6
:105203000912539E450D1252DEAC0EAD0FEEFAEFAE
:10521300FB121A6EEE2408FE50010FE50C70247C7D
:1052230000741E120BBB1252B18012EC1254DDE853
:105233002AFAE93BFB1252C4A30EAF830CECC395CD
:105243000D40E8E50824171247127401F0120E68A6
:10525300E508241AF582E435091254297403120966
:10526300BEAA0AAB0B120C0AE9601BE5082416124E
:1052730047127401F074031209AEE5082418F5828D
:10528300E435091249868508828509831252BAAA30
:1052930008AB09120C58E9FEEEF9740B0244F7E56A
:1052A30008125B9422EE240BF582E43FF58312523D
:1052B300B522124A4AF922A3A3E50AF0A3E50BF0AB
:1052C300228A828B831252D81252DE8A828B8312F5
:1052D30052D7F022A3E08E828F8322F0A3AE82AF57
:1052E300832225E0F8E433F92274F01204188A0AC1
:1052F3008B0B890C8C088D09900EE6124E5F607B38
:105303007410120BBBE0F50D1252E5E8240EFAE41B
:1053130039FB1218D68A0E8B0FAE0EAF0FEE4F600D
:105323005A8E828F8374D4F0A3A3E50AF0A3E50B0E
:105333001244EAE50CF0AC08AD09EE2405FAE43FAB
:10534300FB121A6E123B73E50DF07411120BBB12B4
:1053530055C17808120916AC0DEC2CFCE433FDEEB4
:10536300240EFAE43FFB1218B2740312092DEEFA6D
:10537300EFFB900EE61253851205EE0247B48E82C0
:105383008F8312538922E0F8A3E0F583888222F504
:1053930083E0FEA3E0FF8E828F8322F0A3E50CC49B
:1053A3003354E022241DF582E422241FF582E438DD
:1053B30022EA241E1248BBF9EA241FF582E43B12B9
:1053C3002D4E2274F6120418EAFEEBFF9003C280FE
:1053D3001388828983E06E7003A3E06F603688824E
:1053E3008983A3A3124E5F70E87A047B00121984A9
:1053F3008A088B09A808A909E84960188882898363
:105403001255CF9003C212541AA3A312542B900324
:10541300C212498802492E122D508882898322EEB6
:10542300241AF582E43FF583EAF0A3EBF02274F447
:105433001204187E009003C280070E88828983A31A
:10544300A3124E5F70F4EE1254DD1219848A088B96
:1054530009EA4509607E7F009003C2802188828922
:1054630083124D41EF1254DDE5082AF582E5093B2D
:10547300F583ECF0A3EDF00F88828983A3A3124E8A
:105483005F70DA9003B31254F17003A3E0697808F4
:10549300701C12091AEEF50A780A12091E7C7F7D28
:1054A3000379009003B3124E2F120EF8801A1209DB
:1054B3001AEEF50A780A12091E7C7F7D03790090A3
:1054C30003B3124E2F120EF2740312092DAA08AB66
:1054D3000912198A120C70022D5825E0FAE433FBE5
:1054E300228E828F83A3A3A3A3A3A3A3A3A3125256
:1054F300B590035EE06822C082C08380128A828BEB
:1055030083A3A31252B19003C212498812198A903D
:1055130003C2123A6170E60247EC74F51204189064
:10552300036B123C539003D61255B51249887AD6B1
:105533007B037950121CFC9003D61255C1801512BF
:10554300568F65087004A3E0650960061257891237
:105553000F2E050A1255AA5018E50A125775700343
:10556300A3E06F70DA740328F582740C125AA580D5
:10557300E19003D6123C53900EE8124E5F60257AF9
:10558300067B001218D6EA4B601A8A828B8374D585
:10559300F0A3A3E41255DB041255C8900EE812538E
:1055A300851205EE025BB390227BE493F8E50AC310
:1055B30098221255B922124A4AF990036B221237E4
:1055C3004C750A00221238E01255CF22EEF0A3EFF9
:1055D300F022240FF582E422125B71A3A3A322EE2F
:1055E3002402FAE43FFB22EE2417F582E43FF5831D
:1055F3007401F022F583124A4AF98882898322745E
:10560300F71204187E008007125781120F2E0E1214
:10561300500640F47E00EE12563174FEF0A30412DD
:105623005822E4F00EEEC3940340EB023B4D75F0B9
:1056330003A4F8A9F074C428F8740339F98882899B
:1056430083A32274F71204187F0080010F90227B3A
:10565300E493F8EFC398502DEF75F017A4F8A9F071
:105663001259636A7003A3E06B70E112568F6C707A
:1056730003A3E06D600A74FF6C700374FF6D70CC5C
:1056830012578980047A007B00023B4D1256932205
:10569300740328F582740C1259722274F6120418DA
:1056A3007CFF7DFF7AFE7BFF120F1CEA4B703C757B
:1056B30008008032E50875F017A4F8A9F0740828EB
:1056C300F582740C122C976005125958701674F9F0
:1056D30028FE740B39FF8E828F83124E2F120D5AC0
:1056E300EEFAEFFB05081256F140C902492E90224B
:1056F3007BE493F8E508C3982274F41204188A082B
:105703008B09ECFEEDFF800B120F2EEEFCEFFDAAD2
:1057130008AB09120F1CEA4B70EE022D5874F712F6
:105723000418EAFEEBFFEE4F601B7C177D00790047
:105733001218BE8E828F8374FEF0A30412375EA309
:1057430014F0A304F0023B4D74F7120418EAFEEBC5
:10575300FF7508008014E5081257757003A3E06F06
:105763006006125789120F2E05081256F140E70200
:105773003B4D75F017A4F8A9F01256936E22EE75FF
:10578300F017A4F8A9F074F928FA740B39FB227402
:10579300F6120418120F1C8A088B09A808A909E835
:1057A300496009E8240DFAE439FB80047A007B00A0
:1057B30002492E74F41204188A0A8B0BECFEEDFFD7
:1057C3007508007509008034E509125AB0120C04FB
:1057D300E96027E50975F017A4F8A9F0125982705A
:1057E30004A3E0650B700375080AEEFCEFFD125A83
:1057F300B7121A68E960034308A0050990227BE405
:1058030093F8E509C3985004E50860BC0228F31235
:10581300581DA3A3A3A3A3A3A322125822A322F038
:105823008882898322125822122D502274F3120483
:10583300188A088B09ECFEEDFF750C007B007C01D8
:10584300740D120BBBE0F50AA3E0F50B80101218E0
:10585300D0E50CF5F0EA84ABF0750C007C007D001C
:1058630080010D90227BE493F8EDC3985049125ABE
:10587300C07003A3E0F460EA1259887004A3E065E2
:105883000960DF1259636E7003A3E06F60D412598D
:10589300827004A3E0650B60C912595860C4C394B5
:1058A3000750BFEC050C70BAE50CC39B40B474F908
:1058B30028F582740B80787A0080010A902277E4BD
:1058C30093F8EAC3985070EA75F016A4F8A9F01299
:1058D300598E64FE7003A3E0F460E012598E6508EC
:1058E3007004A3E0650960D312598E6E7003A3E0C0
:1058F3006F60C812598E650A7004A3E0650B60BB24
:10590300743428F582740A122C9760AFC39407503D
:10591300AA125977640160A3E06402609EEC050C4F
:105923007099E50CC39B4093742B28F582740A3954
:10593300F583124E2F8019E50C6011EB700E740184
:10594300650C60030258517B0102585C7AFE7BFFB1
:105953007F050206D3740728F582740C125972224C
:105963001259672274F928F582740B12597222397D
:10597300F583E022742F28F582740A1259722212D9
:105983005967650A22125967650822742B28F58224
:10599300740A1259722274F51204188A088B09ECDE
:1059A300FEEDFF750A008002050A1255AA5022EE89
:1059B300FCEFFDE50A125AB0121A68E960EAE50A3B
:1059C30075F017A4F8A9F074F928F582740B125A2C
:1059D300A5025BB3E9F87907C3940D40047901800C
:1059E30019E8C3940740047903800FE8C394034084
:1059F3000419198005E8700279000208FA74F0129C
:105A030004188A088B098C0A8D0B890C120F228AC1
:105A13000E8B0FAE0EAF0FEE4F60647C177D0079D7
:105A2300001218BE8E828F83125AA88E828F83A390
:105A3300A3A3A3A3A3A3A31252BAE50C6007123D29
:105A4300D3E50C8006EE240F124B1FF09003D812FF
:105A53004E5F60159003B2E064017006125A85E44C
:105A6300800D125A8574078006EE240E124B1F1206
:105A73005A955001097A027B001202C8125A8F020A
:105A830047B4EE240EF582E43FF58322123B77E818
:105A9300F022F0125A9A22902278E493790024019A
:105AA300F82239F583E508F0A3E509F02275F0172C
:105AB300A4F8A9F074FB28FA740B39FB22ED75F0F6
:105AC30017A4F8A9F012596764FE22E0FAA3E022B2
:105AD300C082C08374F81209C690801CAC18AD193B
:105AE3007408120876AC18AD19121A68E9640170CB
:105AF30004790080027901022511124A4AC822243E
:105B03001EF582E438F58322EE2414F582E43FF592
:105B13008322124B2F7401F0A3E4F022F8E43FF93F
